{
  "contractName": "MintAnimalToken",
  "abi": [
    {
      "inputs": [],
      "stateMutability": "nonpayable",
      "type": "constructor"
    },
    {
      "anonymous": false,
      "inputs": [
        {
          "indexed": true,
          "internalType": "address",
          "name": "owner",
          "type": "address"
        },
        {
          "indexed": true,
          "internalType": "address",
          "name": "approved",
          "type": "address"
        },
        {
          "indexed": true,
          "internalType": "uint256",
          "name": "tokenId",
          "type": "uint256"
        }
      ],
      "name": "Approval",
      "type": "event"
    },
    {
      "anonymous": false,
      "inputs": [
        {
          "indexed": true,
          "internalType": "address",
          "name": "owner",
          "type": "address"
        },
        {
          "indexed": true,
          "internalType": "address",
          "name": "operator",
          "type": "address"
        },
        {
          "indexed": false,
          "internalType": "bool",
          "name": "approved",
          "type": "bool"
        }
      ],
      "name": "ApprovalForAll",
      "type": "event"
    },
    {
      "anonymous": false,
      "inputs": [
        {
          "indexed": true,
          "internalType": "address",
          "name": "from",
          "type": "address"
        },
        {
          "indexed": true,
          "internalType": "address",
          "name": "to",
          "type": "address"
        },
        {
          "indexed": true,
          "internalType": "uint256",
          "name": "tokenId",
          "type": "uint256"
        }
      ],
      "name": "Transfer",
      "type": "event"
    },
    {
      "inputs": [
        {
          "internalType": "uint256",
          "name": "",
          "type": "uint256"
        }
      ],
      "name": "animalTypes",
      "outputs": [
        {
          "internalType": "uint256",
          "name": "",
          "type": "uint256"
        }
      ],
      "stateMutability": "view",
      "type": "function"
    },
    {
      "inputs": [
        {
          "internalType": "address",
          "name": "to",
          "type": "address"
        },
        {
          "internalType": "uint256",
          "name": "tokenId",
          "type": "uint256"
        }
      ],
      "name": "approve",
      "outputs": [],
      "stateMutability": "nonpayable",
      "type": "function"
    },
    {
      "inputs": [
        {
          "internalType": "address",
          "name": "owner",
          "type": "address"
        }
      ],
      "name": "balanceOf",
      "outputs": [
        {
          "internalType": "uint256",
          "name": "",
          "type": "uint256"
        }
      ],
      "stateMutability": "view",
      "type": "function"
    },
    {
      "inputs": [
        {
          "internalType": "uint256",
          "name": "tokenId",
          "type": "uint256"
        }
      ],
      "name": "getApproved",
      "outputs": [
        {
          "internalType": "address",
          "name": "",
          "type": "address"
        }
      ],
      "stateMutability": "view",
      "type": "function"
    },
    {
      "inputs": [
        {
          "internalType": "address",
          "name": "owner",
          "type": "address"
        },
        {
          "internalType": "address",
          "name": "operator",
          "type": "address"
        }
      ],
      "name": "isApprovedForAll",
      "outputs": [
        {
          "internalType": "bool",
          "name": "",
          "type": "bool"
        }
      ],
      "stateMutability": "view",
      "type": "function"
    },
    {
      "inputs": [],
      "name": "name",
      "outputs": [
        {
          "internalType": "string",
          "name": "",
          "type": "string"
        }
      ],
      "stateMutability": "view",
      "type": "function"
    },
    {
      "inputs": [
        {
          "internalType": "uint256",
          "name": "tokenId",
          "type": "uint256"
        }
      ],
      "name": "ownerOf",
      "outputs": [
        {
          "internalType": "address",
          "name": "",
          "type": "address"
        }
      ],
      "stateMutability": "view",
      "type": "function"
    },
    {
      "inputs": [
        {
          "internalType": "address",
          "name": "from",
          "type": "address"
        },
        {
          "internalType": "address",
          "name": "to",
          "type": "address"
        },
        {
          "internalType": "uint256",
          "name": "tokenId",
          "type": "uint256"
        }
      ],
      "name": "safeTransferFrom",
      "outputs": [],
      "stateMutability": "nonpayable",
      "type": "function"
    },
    {
      "inputs": [
        {
          "internalType": "address",
          "name": "from",
          "type": "address"
        },
        {
          "internalType": "address",
          "name": "to",
          "type": "address"
        },
        {
          "internalType": "uint256",
          "name": "tokenId",
          "type": "uint256"
        },
        {
          "internalType": "bytes",
          "name": "_data",
          "type": "bytes"
        }
      ],
      "name": "safeTransferFrom",
      "outputs": [],
      "stateMutability": "nonpayable",
      "type": "function"
    },
    {
      "inputs": [],
      "name": "saleAnimalToken",
      "outputs": [
        {
          "internalType": "contract SaleAnimalToken",
          "name": "",
          "type": "address"
        }
      ],
      "stateMutability": "view",
      "type": "function"
    },
    {
      "inputs": [
        {
          "internalType": "address",
          "name": "operator",
          "type": "address"
        },
        {
          "internalType": "bool",
          "name": "approved",
          "type": "bool"
        }
      ],
      "name": "setApprovalForAll",
      "outputs": [],
      "stateMutability": "nonpayable",
      "type": "function"
    },
    {
      "inputs": [
        {
          "internalType": "bytes4",
          "name": "interfaceId",
          "type": "bytes4"
        }
      ],
      "name": "supportsInterface",
      "outputs": [
        {
          "internalType": "bool",
          "name": "",
          "type": "bool"
        }
      ],
      "stateMutability": "view",
      "type": "function"
    },
    {
      "inputs": [],
      "name": "symbol",
      "outputs": [
        {
          "internalType": "string",
          "name": "",
          "type": "string"
        }
      ],
      "stateMutability": "view",
      "type": "function"
    },
    {
      "inputs": [
        {
          "internalType": "uint256",
          "name": "index",
          "type": "uint256"
        }
      ],
      "name": "tokenByIndex",
      "outputs": [
        {
          "internalType": "uint256",
          "name": "",
          "type": "uint256"
        }
      ],
      "stateMutability": "view",
      "type": "function"
    },
    {
      "inputs": [
        {
          "internalType": "address",
          "name": "owner",
          "type": "address"
        },
        {
          "internalType": "uint256",
          "name": "index",
          "type": "uint256"
        }
      ],
      "name": "tokenOfOwnerByIndex",
      "outputs": [
        {
          "internalType": "uint256",
          "name": "",
          "type": "uint256"
        }
      ],
      "stateMutability": "view",
      "type": "function"
    },
    {
      "inputs": [
        {
          "internalType": "uint256",
          "name": "tokenId",
          "type": "uint256"
        }
      ],
      "name": "tokenURI",
      "outputs": [
        {
          "internalType": "string",
          "name": "",
          "type": "string"
        }
      ],
      "stateMutability": "view",
      "type": "function"
    },
    {
      "inputs": [],
      "name": "totalSupply",
      "outputs": [
        {
          "internalType": "uint256",
          "name": "",
          "type": "uint256"
        }
      ],
      "stateMutability": "view",
      "type": "function"
    },
    {
      "inputs": [
        {
          "internalType": "address",
          "name": "from",
          "type": "address"
        },
        {
          "internalType": "address",
          "name": "to",
          "type": "address"
        },
        {
          "internalType": "uint256",
          "name": "tokenId",
          "type": "uint256"
        }
      ],
      "name": "transferFrom",
      "outputs": [],
      "stateMutability": "nonpayable",
      "type": "function"
    },
    {
      "inputs": [],
      "name": "mintAnimalToken",
      "outputs": [],
      "stateMutability": "nonpayable",
      "type": "function"
    },
    {
      "inputs": [
        {
          "internalType": "address",
          "name": "_animalTokenOwner",
          "type": "address"
        }
      ],
      "name": "getAnimalTokens",
      "outputs": [
        {
          "components": [
            {
              "internalType": "uint256",
              "name": "animalTokenId",
              "type": "uint256"
            },
            {
              "internalType": "uint256",
              "name": "animalType",
              "type": "uint256"
            },
            {
              "internalType": "uint256",
              "name": "animalPrice",
              "type": "uint256"
            }
          ],
          "internalType": "struct MintAnimalToken.AnimalTokenData[]",
          "name": "",
          "type": "tuple[]"
        }
      ],
      "stateMutability": "view",
      "type": "function"
    },
    {
      "inputs": [
        {
          "internalType": "address",
          "name": "_saleAnimalToken",
          "type": "address"
        }
      ],
      "name": "setSaleAnimalToken",
      "outputs": [],
      "stateMutability": "nonpayable",
      "type": "function"
    }
  ],
  "bytecode": "0x60806040523480156200001157600080fd5b506040518060400160405280600b81526020017f68363632416e696d616c730000000000000000000000000000000000000000008152506040518060400160405280600381526020017f4841530000000000000000000000000000000000000000000000000000000000815250816000908051906020019062000096929190620000b8565b508060019080519060200190620000af929190620000b8565b505050620001cd565b828054620000c69062000168565b90600052602060002090601f016020900481019282620000ea576000855562000136565b82601f106200010557805160ff191683800117855562000136565b8280016001018555821562000136579182015b828111156200013557825182559160200191906001019062000118565b5b50905062000145919062000149565b5090565b5b80821115620001645760008160009055506001016200014a565b5090565b600060028204905060018216806200018157607f821691505b602082108114156200019857620001976200019e565b5b50919050565b7f4e487b7100000000000000000000000000000000000000000000000000000000600052602260045260246000fd5b61359280620001dd6000396000f3fe608060405234801561001057600080fd5b50600436106101375760003560e01c80634f6ccce7116100b857806395d89b411161007c57806395d89b4114610372578063a22cb46514610390578063b1752755146103ac578063b88d4fde146103ca578063c87b56dd146103e6578063e985e9c51461041657610137565b80634f6ccce7146102a8578063504436ac146102d857806362b4c27f146103085780636352211e1461031257806370a082311461034257610137565b806318160ddd116100ff57806318160ddd146101f257806323b872dd146102105780632f745c591461022c57806342842e0e1461025c5780634e7fe41e1461027857610137565b806301ffc9a71461013c57806305b2ad4e1461016c57806306fdde0314610188578063081812fc146101a6578063095ea7b3146101d6575b600080fd5b610156600480360381019061015191906123c5565b610446565b604051610163919061297a565b60405180910390f35b6101866004803603810190610181919061221e565b6104c0565b005b610190610504565b60405161019d91906129b0565b60405180910390f35b6101c060048036038101906101bb9190612417565b610596565b6040516101cd91906128f1565b60405180910390f35b6101f060048036038101906101eb9190612389565b61061b565b005b6101fa610733565b6040516102079190612bf2565b60405180910390f35b61022a60048036038101906102259190612283565b610740565b005b61024660048036038101906102419190612389565b6107a0565b6040516102539190612bf2565b60405180910390f35b61027660048036038101906102719190612283565b610845565b005b610292600480360381019061028d9190612417565b610865565b60405161029f9190612bf2565b60405180910390f35b6102c260048036038101906102bd9190612417565b61087d565b6040516102cf9190612bf2565b60405180910390f35b6102f260048036038101906102ed919061221e565b610914565b6040516102ff9190612958565b60405180910390f35b610310610b45565b005b61032c60048036038101906103279190612417565b610bcd565b60405161033991906128f1565b60405180910390f35b61035c6004803603810190610357919061221e565b610c7f565b6040516103699190612bf2565b60405180910390f35b61037a610d37565b60405161038791906129b0565b60405180910390f35b6103aa60048036038101906103a5919061234d565b610dc9565b005b6103b4610ddf565b6040516103c19190612995565b60405180910390f35b6103e460048036038101906103df91906122d2565b610e05565b005b61040060048036038101906103fb9190612417565b610e67565b60405161040d91906129b0565b60405180910390f35b610430600480360381019061042b9190612247565b610f0e565b60405161043d919061297a565b60405180910390f35b60007f780e9d63000000000000000000000000000000000000000000000000000000007bffffffffffffffffffffffffffffffffffffffffffffffffffffffff1916827bffffffffffffffffffffffffffffffffffffffffffffffffffffffff191614806104b957506104b882610fa2565b5b9050919050565b80600a60006101000a81548173ffffffffffffffffffffffffffffffffffffffff021916908373ffffffffffffffffffffffffffffffffffffffff16021790555050565b60606000805461051390612e74565b80601f016020809104026020016040519081016040528092919081815260200182805461053f90612e74565b801561058c5780601f106105615761010080835404028352916020019161058c565b820191906000526020600020905b81548152906001019060200180831161056f57829003601f168201915b5050505050905090565b60006105a182611084565b6105e0576040517f08c379a00000000000000000000000000000000000000000000000000000000081526004016105d790612b32565b60405180910390fd5b6004600083815260200190815260200160002060009054906101000a900473ffffffffffffffffffffffffffffffffffffffff169050919050565b600061062682610bcd565b90508073ffffffffffffffffffffffffffffffffffffffff168373ffffffffffffffffffffffffffffffffffffffff161415610697576040517f08c379a000000000000000000000000000000000000000000000000000000000815260040161068e90612b92565b60405180910390fd5b8073ffffffffffffffffffffffffffffffffffffffff166106b66110f0565b73ffffffffffffffffffffffffffffffffffffffff1614806106e557506106e4816106df6110f0565b610f0e565b5b610724576040517f08c379a000000000000000000000000000000000000000000000000000000000815260040161071b90612ab2565b60405180910390fd5b61072e83836110f8565b505050565b6000600880549050905090565b61075161074b6110f0565b826111b1565b610790576040517f08c379a000000000000000000000000000000000000000000000000000000000815260040161078790612bb2565b60405180910390fd5b61079b83838361128f565b505050565b60006107ab83610c7f565b82106107ec576040517f08c379a00000000000000000000000000000000000000000000000000000000081526004016107e3906129d2565b60405180910390fd5b600660008473ffffffffffffffffffffffffffffffffffffffff1673ffffffffffffffffffffffffffffffffffffffff168152602001908152602001600020600083815260200190815260200160002054905092915050565b61086083838360405180602001604052806000815250610e05565b505050565b600b6020528060005260406000206000915090505481565b6000610887610733565b82106108c8576040517f08c379a00000000000000000000000000000000000000000000000000000000081526004016108bf90612bd2565b60405180910390fd5b60088281548110610902577f4e487b7100000000000000000000000000000000000000000000000000000000600052603260045260246000fd5b90600052602060002001549050919050565b6060600061092183610c7f565b90506000811415610967576040517f08c379a000000000000000000000000000000000000000000000000000000000815260040161095e90612b72565b60405180910390fd5b60008167ffffffffffffffff8111156109a9577f4e487b7100000000000000000000000000000000000000000000000000000000600052604160045260246000fd5b6040519080825280602002602001820160405280156109e257816020015b6109cf612117565b8152602001906001900390816109c75790505b50905060005b82811015610b3a5760006109fc86836107a0565b90506000600b60008381526020019081526020016000205490506000600a60009054906101000a900473ffffffffffffffffffffffffffffffffffffffff1673ffffffffffffffffffffffffffffffffffffffff1663fdbb69df846040518263ffffffff1660e01b8152600401610a739190612bf2565b60206040518083038186803b158015610a8b57600080fd5b505afa158015610a9f573d6000803e3d6000fd5b505050506040513d601f19601f82011682018060405250810190610ac39190612440565b9050604051806060016040528084815260200183815260200182815250858581518110610b19577f4e487b7100000000000000000000000000000000000000000000000000000000600052603260045260246000fd5b60200260200101819052505050508080610b3290612ed7565b9150506109e8565b508092505050919050565b60006001610b51610733565b610b5b9190612cdf565b9050600060016005423385604051602001610b78939291906128b4565b6040516020818303038152906040528051906020012060001c610b9b9190612f4e565b610ba59190612cdf565b905080600b600084815260200190815260200160002081905550610bc933836114f6565b5050565b6000806002600084815260200190815260200160002060009054906101000a900473ffffffffffffffffffffffffffffffffffffffff169050600073ffffffffffffffffffffffffffffffffffffffff168173ffffffffffffffffffffffffffffffffffffffff161415610c76576040517f08c379a0000000000000000000000000000000000000000000000000000000008152600401610c6d90612af2565b60405180910390fd5b80915050919050565b60008073ffffffffffffffffffffffffffffffffffffffff168273ffffffffffffffffffffffffffffffffffffffff161415610cf0576040517f08c379a0000000000000000000000000000000000000000000000000000000008152600401610ce790612ad2565b60405180910390fd5b600360008373ffffffffffffffffffffffffffffffffffffffff1673ffffffffffffffffffffffffffffffffffffffff168152602001908152602001600020549050919050565b606060018054610d4690612e74565b80601f0160208091040260200160405190810160405280929190818152602001828054610d7290612e74565b8015610dbf5780601f10610d9457610100808354040283529160200191610dbf565b820191906000526020600020905b815481529060010190602001808311610da257829003601f168201915b5050505050905090565b610ddb610dd46110f0565b83836116d0565b5050565b600a60009054906101000a900473ffffffffffffffffffffffffffffffffffffffff1681565b610e16610e106110f0565b836111b1565b610e55576040517f08c379a0000000000000000000000000000000000000000000000000000000008152600401610e4c90612bb2565b60405180910390fd5b610e618484848461183d565b50505050565b6060610e7282611084565b610eb1576040517f08c379a0000000000000000000000000000000000000000000000000000000008152600401610ea890612b52565b60405180910390fd5b6000610ebb611899565b90506000815111610edb5760405180602001604052806000815250610f06565b80610ee5846118b0565b604051602001610ef6929190612890565b6040516020818303038152906040525b915050919050565b6000600560008473ffffffffffffffffffffffffffffffffffffffff1673ffffffffffffffffffffffffffffffffffffffff16815260200190815260200160002060008373ffffffffffffffffffffffffffffffffffffffff1673ffffffffffffffffffffffffffffffffffffffff16815260200190815260200160002060009054906101000a900460ff16905092915050565b60007f80ac58cd000000000000000000000000000000000000000000000000000000007bffffffffffffffffffffffffffffffffffffffffffffffffffffffff1916827bffffffffffffffffffffffffffffffffffffffffffffffffffffffff1916148061106d57507f5b5e139f000000000000000000000000000000000000000000000000000000007bffffffffffffffffffffffffffffffffffffffffffffffffffffffff1916827bffffffffffffffffffffffffffffffffffffffffffffffffffffffff1916145b8061107d575061107c82611a5d565b5b9050919050565b60008073ffffffffffffffffffffffffffffffffffffffff166002600084815260200190815260200160002060009054906101000a900473ffffffffffffffffffffffffffffffffffffffff1673ffffffffffffffffffffffffffffffffffffffff1614159050919050565b600033905090565b816004600083815260200190815260200160002060006101000a81548173ffffffffffffffffffffffffffffffffffffffff021916908373ffffffffffffffffffffffffffffffffffffffff160217905550808273ffffffffffffffffffffffffffffffffffffffff1661116b83610bcd565b73ffffffffffffffffffffffffffffffffffffffff167f8c5be1e5ebec7d5bd14f71427d1e84f3dd0314c0f7b2291e5b200ac8c7c3b92560405160405180910390a45050565b60006111bc82611084565b6111fb576040517f08c379a00000000000000000000000000000000000000000000000000000000081526004016111f290612a92565b60405180910390fd5b600061120683610bcd565b90508073ffffffffffffffffffffffffffffffffffffffff168473ffffffffffffffffffffffffffffffffffffffff16148061127557508373ffffffffffffffffffffffffffffffffffffffff1661125d84610596565b73ffffffffffffffffffffffffffffffffffffffff16145b8061128657506112858185610f0e565b5b91505092915050565b8273ffffffffffffffffffffffffffffffffffffffff166112af82610bcd565b73ffffffffffffffffffffffffffffffffffffffff1614611305576040517f08c379a00000000000000000000000000000000000000000000000000000000081526004016112fc90612a12565b60405180910390fd5b600073ffffffffffffffffffffffffffffffffffffffff168273ffffffffffffffffffffffffffffffffffffffff161415611375576040517f08c379a000000000000000000000000000000000000000000000000000000000815260040161136c90612a52565b60405180910390fd5b611380838383611ac7565b61138b6000826110f8565b6001600360008573ffffffffffffffffffffffffffffffffffffffff1673ffffffffffffffffffffffffffffffffffffffff16815260200190815260200160002060008282546113db9190612d66565b925050819055506001600360008473ffffffffffffffffffffffffffffffffffffffff1673ffffffffffffffffffffffffffffffffffffffff16815260200190815260200160002060008282546114329190612cdf565b92505081905550816002600083815260200190815260200160002060006101000a81548173ffffffffffffffffffffffffffffffffffffffff021916908373ffffffffffffffffffffffffffffffffffffffff160217905550808273ffffffffffffffffffffffffffffffffffffffff168473ffffffffffffffffffffffffffffffffffffffff167fddf252ad1be2c89b69c2b068fc378daa952ba7f163c4a11628f55a4df523b3ef60405160405180910390a46114f1838383611bdb565b505050565b600073ffffffffffffffffffffffffffffffffffffffff168273ffffffffffffffffffffffffffffffffffffffff161415611566576040517f08c379a000000000000000000000000000000000000000000000000000000000815260040161155d90612b12565b60405180910390fd5b61156f81611084565b156115af576040517f08c379a00000000000000000000000000000000000000000000000000000000081526004016115a690612a32565b60405180910390fd5b6115bb60008383611ac7565b6001600360008473ffffffffffffffffffffffffffffffffffffffff1673ffffffffffffffffffffffffffffffffffffffff168152602001908152602001600020600082825461160b9190612cdf565b92505081905550816002600083815260200190815260200160002060006101000a81548173ffffffffffffffffffffffffffffffffffffffff021916908373ffffffffffffffffffffffffffffffffffffffff160217905550808273ffffffffffffffffffffffffffffffffffffffff16600073ffffffffffffffffffffffffffffffffffffffff167fddf252ad1be2c89b69c2b068fc378daa952ba7f163c4a11628f55a4df523b3ef60405160405180910390a46116cc60008383611bdb565b5050565b8173ffffffffffffffffffffffffffffffffffffffff168373ffffffffffffffffffffffffffffffffffffffff16141561173f576040517f08c379a000000000000000000000000000000000000000000000000000000000815260040161173690612a72565b60405180910390fd5b80600560008573ffffffffffffffffffffffffffffffffffffffff1673ffffffffffffffffffffffffffffffffffffffff16815260200190815260200160002060008473ffffffffffffffffffffffffffffffffffffffff1673ffffffffffffffffffffffffffffffffffffffff16815260200190815260200160002060006101000a81548160ff0219169083151502179055508173ffffffffffffffffffffffffffffffffffffffff168373ffffffffffffffffffffffffffffffffffffffff167f17307eab39ab6107e8899845ad3d59bd9653f200f220920489ca2b5937696c3183604051611830919061297a565b60405180910390a3505050565b61184884848461128f565b61185484848484611be0565b611893576040517f08c379a000000000000000000000000000000000000000000000000000000000815260040161188a906129f2565b60405180910390fd5b50505050565b606060405180602001604052806000815250905090565b606060008214156118f8576040518060400160405280600181526020017f30000000000000000000000000000000000000000000000000000000000000008152509050611a58565b600082905060005b6000821461192a57808061191390612ed7565b915050600a826119239190612d35565b9150611900565b60008167ffffffffffffffff81111561196c577f4e487b7100000000000000000000000000000000000000000000000000000000600052604160045260246000fd5b6040519080825280601f01601f19166020018201604052801561199e5781602001600182028036833780820191505090505b5090505b60008514611a51576001826119b79190612d66565b9150600a856119c69190612f4e565b60306119d29190612cdf565b60f81b818381518110611a0e577f4e487b7100000000000000000000000000000000000000000000000000000000600052603260045260246000fd5b60200101907effffffffffffffffffffffffffffffffffffffffffffffffffffffffffffff1916908160001a905350600a85611a4a9190612d35565b94506119a2565b8093505050505b919050565b60007f01ffc9a7000000000000000000000000000000000000000000000000000000007bffffffffffffffffffffffffffffffffffffffffffffffffffffffff1916827bffffffffffffffffffffffffffffffffffffffffffffffffffffffff1916149050919050565b611ad2838383611d77565b600073ffffffffffffffffffffffffffffffffffffffff168373ffffffffffffffffffffffffffffffffffffffff161415611b1557611b1081611d7c565b611b54565b8173ffffffffffffffffffffffffffffffffffffffff168373ffffffffffffffffffffffffffffffffffffffff1614611b5357611b528382611dc5565b5b5b600073ffffffffffffffffffffffffffffffffffffffff168273ffffffffffffffffffffffffffffffffffffffff161415611b9757611b9281611f32565b611bd6565b8273ffffffffffffffffffffffffffffffffffffffff168273ffffffffffffffffffffffffffffffffffffffff1614611bd557611bd48282612075565b5b5b505050565b505050565b6000611c018473ffffffffffffffffffffffffffffffffffffffff166120f4565b15611d6a578373ffffffffffffffffffffffffffffffffffffffff1663150b7a02611c2a6110f0565b8786866040518563ffffffff1660e01b8152600401611c4c949392919061290c565b602060405180830381600087803b158015611c6657600080fd5b505af1925050508015611c9757506040513d601f19601f82011682018060405250810190611c9491906123ee565b60015b611d1a573d8060008114611cc7576040519150601f19603f3d011682016040523d82523d6000602084013e611ccc565b606091505b50600081511415611d12576040517f08c379a0000000000000000000000000000000000000000000000000000000008152600401611d09906129f2565b60405180910390fd5b805181602001fd5b63150b7a0260e01b7bffffffffffffffffffffffffffffffffffffffffffffffffffffffff1916817bffffffffffffffffffffffffffffffffffffffffffffffffffffffff191614915050611d6f565b600190505b949350505050565b505050565b6008805490506009600083815260200190815260200160002081905550600881908060018154018082558091505060019003906000526020600020016000909190919091505550565b60006001611dd284610c7f565b611ddc9190612d66565b9050600060076000848152602001908152602001600020549050818114611ec1576000600660008673ffffffffffffffffffffffffffffffffffffffff1673ffffffffffffffffffffffffffffffffffffffff168152602001908152602001600020600084815260200190815260200160002054905080600660008773ffffffffffffffffffffffffffffffffffffffff1673ffffffffffffffffffffffffffffffffffffffff168152602001908152602001600020600084815260200190815260200160002081905550816007600083815260200190815260200160002081905550505b6007600084815260200190815260200160002060009055600660008573ffffffffffffffffffffffffffffffffffffffff1673ffffffffffffffffffffffffffffffffffffffff16815260200190815260200160002060008381526020019081526020016000206000905550505050565b60006001600880549050611f469190612d66565b9050600060096000848152602001908152602001600020549050600060088381548110611f9c577f4e487b7100000000000000000000000000000000000000000000000000000000600052603260045260246000fd5b906000526020600020015490508060088381548110611fe4577f4e487b7100000000000000000000000000000000000000000000000000000000600052603260045260246000fd5b906000526020600020018190555081600960008381526020019081526020016000208190555060096000858152602001908152602001600020600090556008805480612059577f4e487b7100000000000000000000000000000000000000000000000000000000600052603160045260246000fd5b6001900381819060005260206000200160009055905550505050565b600061208083610c7f565b905081600660008573ffffffffffffffffffffffffffffffffffffffff1673ffffffffffffffffffffffffffffffffffffffff168152602001908152602001600020600083815260200190815260200160002081905550806007600084815260200190815260200160002081905550505050565b6000808273ffffffffffffffffffffffffffffffffffffffff163b119050919050565b60405180606001604052806000815260200160008152602001600081525090565b600061214b61214684612c32565b612c0d565b90508281526020810184848401111561216357600080fd5b61216e848285612e32565b509392505050565b60008135905061218581613500565b92915050565b60008135905061219a81613517565b92915050565b6000813590506121af8161352e565b92915050565b6000815190506121c48161352e565b92915050565b600082601f8301126121db57600080fd5b81356121eb848260208601612138565b91505092915050565b60008135905061220381613545565b92915050565b60008151905061221881613545565b92915050565b60006020828403121561223057600080fd5b600061223e84828501612176565b91505092915050565b6000806040838503121561225a57600080fd5b600061226885828601612176565b925050602061227985828601612176565b9150509250929050565b60008060006060848603121561229857600080fd5b60006122a686828701612176565b93505060206122b786828701612176565b92505060406122c8868287016121f4565b9150509250925092565b600080600080608085870312156122e857600080fd5b60006122f687828801612176565b945050602061230787828801612176565b9350506040612318878288016121f4565b925050606085013567ffffffffffffffff81111561233557600080fd5b612341878288016121ca565b91505092959194509250565b6000806040838503121561236057600080fd5b600061236e85828601612176565b925050602061237f8582860161218b565b9150509250929050565b6000806040838503121561239c57600080fd5b60006123aa85828601612176565b92505060206123bb858286016121f4565b9150509250929050565b6000602082840312156123d757600080fd5b60006123e5848285016121a0565b91505092915050565b60006020828403121561240057600080fd5b600061240e848285016121b5565b91505092915050565b60006020828403121561242957600080fd5b6000612437848285016121f4565b91505092915050565b60006020828403121561245257600080fd5b600061246084828501612209565b91505092915050565b60006124758383612819565b60608301905092915050565b61248a81612d9a565b82525050565b6124a161249c82612d9a565b612f20565b82525050565b60006124b282612c73565b6124bc8185612ca1565b93506124c783612c63565b8060005b838110156124f85781516124df8882612469565b97506124ea83612c94565b9250506001810190506124cb565b5085935050505092915050565b61250e81612dac565b82525050565b600061251f82612c7e565b6125298185612cb2565b9350612539818560208601612e41565b6125428161303b565b840191505092915050565b61255681612e0e565b82525050565b600061256782612c89565b6125718185612cc3565b9350612581818560208601612e41565b61258a8161303b565b840191505092915050565b60006125a082612c89565b6125aa8185612cd4565b93506125ba818560208601612e41565b80840191505092915050565b60006125d3602b83612cc3565b91506125de82613059565b604082019050919050565b60006125f6603283612cc3565b9150612601826130a8565b604082019050919050565b6000612619602583612cc3565b9150612624826130f7565b604082019050919050565b600061263c601c83612cc3565b915061264782613146565b602082019050919050565b600061265f602483612cc3565b915061266a8261316f565b604082019050919050565b6000612682601983612cc3565b915061268d826131be565b602082019050919050565b60006126a5602c83612cc3565b91506126b0826131e7565b604082019050919050565b60006126c8603883612cc3565b91506126d382613236565b604082019050919050565b60006126eb602a83612cc3565b91506126f682613285565b604082019050919050565b600061270e602983612cc3565b9150612719826132d4565b604082019050919050565b6000612731602083612cc3565b915061273c82613323565b602082019050919050565b6000612754602c83612cc3565b915061275f8261334c565b604082019050919050565b6000612777602f83612cc3565b91506127828261339b565b604082019050919050565b600061279a601983612cc3565b91506127a5826133ea565b602082019050919050565b60006127bd602183612cc3565b91506127c882613413565b604082019050919050565b60006127e0603183612cc3565b91506127eb82613462565b604082019050919050565b6000612803602c83612cc3565b915061280e826134b1565b604082019050919050565b60608201600082015161282f600085018261285b565b506020820151612842602085018261285b565b506040820151612855604085018261285b565b50505050565b61286481612e04565b82525050565b61287381612e04565b82525050565b61288a61288582612e04565b612f44565b82525050565b600061289c8285612595565b91506128a88284612595565b91508190509392505050565b60006128c08286612879565b6020820191506128d08285612490565b6014820191506128e08284612879565b602082019150819050949350505050565b60006020820190506129066000830184612481565b92915050565b60006080820190506129216000830187612481565b61292e6020830186612481565b61293b604083018561286a565b818103606083015261294d8184612514565b905095945050505050565b6000602082019050818103600083015261297281846124a7565b905092915050565b600060208201905061298f6000830184612505565b92915050565b60006020820190506129aa600083018461254d565b92915050565b600060208201905081810360008301526129ca818461255c565b905092915050565b600060208201905081810360008301526129eb816125c6565b9050919050565b60006020820190508181036000830152612a0b816125e9565b9050919050565b60006020820190508181036000830152612a2b8161260c565b9050919050565b60006020820190508181036000830152612a4b8161262f565b9050919050565b60006020820190508181036000830152612a6b81612652565b9050919050565b60006020820190508181036000830152612a8b81612675565b9050919050565b60006020820190508181036000830152612aab81612698565b9050919050565b60006020820190508181036000830152612acb816126bb565b9050919050565b60006020820190508181036000830152612aeb816126de565b9050919050565b60006020820190508181036000830152612b0b81612701565b9050919050565b60006020820190508181036000830152612b2b81612724565b9050919050565b60006020820190508181036000830152612b4b81612747565b9050919050565b60006020820190508181036000830152612b6b8161276a565b9050919050565b60006020820190508181036000830152612b8b8161278d565b9050919050565b60006020820190508181036000830152612bab816127b0565b9050919050565b60006020820190508181036000830152612bcb816127d3565b9050919050565b60006020820190508181036000830152612beb816127f6565b9050919050565b6000602082019050612c07600083018461286a565b92915050565b6000612c17612c28565b9050612c238282612ea6565b919050565b6000604051905090565b600067ffffffffffffffff821115612c4d57612c4c61300c565b5b612c568261303b565b9050602081019050919050565b6000819050602082019050919050565b600081519050919050565b600081519050919050565b600081519050919050565b6000602082019050919050565b600082825260208201905092915050565b600082825260208201905092915050565b600082825260208201905092915050565b600081905092915050565b6000612cea82612e04565b9150612cf583612e04565b9250827fffffffffffffffffffffffffffffffffffffffffffffffffffffffffffffffff03821115612d2a57612d29612f7f565b5b828201905092915050565b6000612d4082612e04565b9150612d4b83612e04565b925082612d5b57612d5a612fae565b5b828204905092915050565b6000612d7182612e04565b9150612d7c83612e04565b925082821015612d8f57612d8e612f7f565b5b828203905092915050565b6000612da582612de4565b9050919050565b60008115159050919050565b60007fffffffff0000000000000000000000000000000000000000000000000000000082169050919050565b600073ffffffffffffffffffffffffffffffffffffffff82169050919050565b6000819050919050565b6000612e1982612e20565b9050919050565b6000612e2b82612de4565b9050919050565b82818337600083830152505050565b60005b83811015612e5f578082015181840152602081019050612e44565b83811115612e6e576000848401525b50505050565b60006002820490506001821680612e8c57607f821691505b60208210811415612ea057612e9f612fdd565b5b50919050565b612eaf8261303b565b810181811067ffffffffffffffff82111715612ece57612ecd61300c565b5b80604052505050565b6000612ee282612e04565b91507fffffffffffffffffffffffffffffffffffffffffffffffffffffffffffffffff821415612f1557612f14612f7f565b5b600182019050919050565b6000612f2b82612f32565b9050919050565b6000612f3d8261304c565b9050919050565b6000819050919050565b6000612f5982612e04565b9150612f6483612e04565b925082612f7457612f73612fae565b5b828206905092915050565b7f4e487b7100000000000000000000000000000000000000000000000000000000600052601160045260246000fd5b7f4e487b7100000000000000000000000000000000000000000000000000000000600052601260045260246000fd5b7f4e487b7100000000000000000000000000000000000000000000000000000000600052602260045260246000fd5b7f4e487b7100000000000000000000000000000000000000000000000000000000600052604160045260246000fd5b6000601f19601f8301169050919050565b60008160601b9050919050565b7f455243373231456e756d657261626c653a206f776e657220696e646578206f7560008201527f74206f6620626f756e6473000000000000000000000000000000000000000000602082015250565b7f4552433732313a207472616e7366657220746f206e6f6e20455243373231526560008201527f63656976657220696d706c656d656e7465720000000000000000000000000000602082015250565b7f4552433732313a207472616e736665722066726f6d20696e636f72726563742060008201527f6f776e6572000000000000000000000000000000000000000000000000000000602082015250565b7f4552433732313a20746f6b656e20616c7265616479206d696e74656400000000600082015250565b7f4552433732313a207472616e7366657220746f20746865207a65726f2061646460008201527f7265737300000000000000000000000000000000000000000000000000000000602082015250565b7f4552433732313a20617070726f766520746f2063616c6c657200000000000000600082015250565b7f4552433732313a206f70657261746f7220717565727920666f72206e6f6e657860008201527f697374656e7420746f6b656e0000000000000000000000000000000000000000602082015250565b7f4552433732313a20617070726f76652063616c6c6572206973206e6f74206f7760008201527f6e6572206e6f7220617070726f76656420666f7220616c6c0000000000000000602082015250565b7f4552433732313a2062616c616e636520717565727920666f7220746865207a6560008201527f726f206164647265737300000000000000000000000000000000000000000000602082015250565b7f4552433732313a206f776e657220717565727920666f72206e6f6e657869737460008201527f656e7420746f6b656e0000000000000000000000000000000000000000000000602082015250565b7f4552433732313a206d696e7420746f20746865207a65726f2061646472657373600082015250565b7f4552433732313a20617070726f76656420717565727920666f72206e6f6e657860008201527f697374656e7420746f6b656e0000000000000000000000000000000000000000602082015250565b7f4552433732314d657461646174613a2055524920717565727920666f72206e6f60008201527f6e6578697374656e7420746f6b656e0000000000000000000000000000000000602082015250565b7f4f776e657220646964206e6f74206861766520746f6b656e2e00000000000000600082015250565b7f4552433732313a20617070726f76616c20746f2063757272656e74206f776e6560008201527f7200000000000000000000000000000000000000000000000000000000000000602082015250565b7f4552433732313a207472616e736665722063616c6c6572206973206e6f74206f60008201527f776e6572206e6f7220617070726f766564000000000000000000000000000000602082015250565b7f455243373231456e756d657261626c653a20676c6f62616c20696e646578206f60008201527f7574206f6620626f756e64730000000000000000000000000000000000000000602082015250565b61350981612d9a565b811461351457600080fd5b50565b61352081612dac565b811461352b57600080fd5b50565b61353781612db8565b811461354257600080fd5b50565b61354e81612e04565b811461355957600080fd5b5056fea26469706673582212204efeaeff8166ef7f7bcbf2723db0ff557623d3864f7465edd27c242527a81a3764736f6c63430008010033",
  "immutableReferences": {},
  "source": "// SPDX-License-Identifier: MIT\r\n\r\npragma solidity ^0.8.1;\r\n\r\nimport \"@openzeppelin/contracts/token/ERC721/extensions/ERC721Enumerable.sol\";\r\n\r\nimport \"./SaleAnimalToken.sol\";\r\n\r\ncontract MintAnimalToken is ERC721Enumerable {\r\n    constructor() ERC721(\"h662Animals\", \"HAS\") {}\r\n\r\n    SaleAnimalToken public saleAnimalToken;\r\n\r\n    mapping(uint256 => uint256) public animalTypes;\r\n\r\n    struct AnimalTokenData {\r\n        uint256 animalTokenId;\r\n        uint256 animalType;\r\n        uint256 animalPrice;\r\n    }\r\n\r\n    function mintAnimalToken() public {\r\n        uint256 animalTokenId = totalSupply() + 1;\r\n\r\n        uint256 animalType = uint256(keccak256(abi.encodePacked(block.timestamp, msg.sender, animalTokenId))) % 5 + 1;\r\n\r\n        animalTypes[animalTokenId] = animalType;\r\n\r\n        _mint(msg.sender, animalTokenId);\r\n    }\r\n\r\n    function getAnimalTokens(address _animalTokenOwner) view public returns (AnimalTokenData[] memory) {\r\n        uint256 balanceLength = balanceOf(_animalTokenOwner);\r\n\r\n        require(balanceLength != 0, \"Owner did not have token.\");\r\n\r\n        AnimalTokenData[] memory animalTokenData = new AnimalTokenData[](balanceLength);\r\n\r\n        for(uint256 i = 0; i < balanceLength; i++) {\r\n            uint256 animalTokenId = tokenOfOwnerByIndex(_animalTokenOwner, i);\r\n            uint256 animalType = animalTypes[animalTokenId];\r\n            uint256 animalPrice = saleAnimalToken.getAnimalTokenPrice(animalTokenId);\r\n\r\n            animalTokenData[i] = AnimalTokenData(animalTokenId, animalType, animalPrice);\r\n        }\r\n\r\n        return animalTokenData;\r\n    }\r\n\r\n    function setSaleAnimalToken(address _saleAnimalToken) public {\r\n        saleAnimalToken = SaleAnimalToken(_saleAnimalToken);\r\n    }\r\n}",
  "sourcePath": "C:\\Users\\LeeSeongHyun\\Desktop\\VSCODE\\DappProject\\contracts\\MintAnimalToken.sol",
  "compiler": {
    "name": "solc",
    "version": "0.8.1+commit.df193b15.Emscripten.clang"
  },
  "schemaVersion": "3.4.5",
  "updatedAt": "2022-03-07T04:55:04.169Z",
  "devdoc": {
    "kind": "dev",
    "methods": {
      "approve(address,uint256)": {
        "details": "See {IERC721-approve}."
      },
      "balanceOf(address)": {
        "details": "See {IERC721-balanceOf}."
      },
      "getApproved(uint256)": {
        "details": "See {IERC721-getApproved}."
      },
      "isApprovedForAll(address,address)": {
        "details": "See {IERC721-isApprovedForAll}."
      },
      "name()": {
        "details": "See {IERC721Metadata-name}."
      },
      "ownerOf(uint256)": {
        "details": "See {IERC721-ownerOf}."
      },
      "safeTransferFrom(address,address,uint256)": {
        "details": "See {IERC721-safeTransferFrom}."
      },
      "safeTransferFrom(address,address,uint256,bytes)": {
        "details": "See {IERC721-safeTransferFrom}."
      },
      "setApprovalForAll(address,bool)": {
        "details": "See {IERC721-setApprovalForAll}."
      },
      "supportsInterface(bytes4)": {
        "details": "See {IERC165-supportsInterface}."
      },
      "symbol()": {
        "details": "See {IERC721Metadata-symbol}."
      },
      "tokenByIndex(uint256)": {
        "details": "See {IERC721Enumerable-tokenByIndex}."
      },
      "tokenOfOwnerByIndex(address,uint256)": {
        "details": "See {IERC721Enumerable-tokenOfOwnerByIndex}."
      },
      "tokenURI(uint256)": {
        "details": "See {IERC721Metadata-tokenURI}."
      },
      "totalSupply()": {
        "details": "See {IERC721Enumerable-totalSupply}."
      },
      "transferFrom(address,address,uint256)": {
        "details": "See {IERC721-transferFrom}."
      }
    },
    "version": 1
  },
  "userdoc": {
    "kind": "user",
    "methods": {},
    "version": 1
  }
}