{
  "contractName": "SaleAnimalToken",
  "abi": [
    {
      "inputs": [
        {
          "internalType": "address",
          "name": "_mintAnimalTokenAddress",
          "type": "address"
        }
      ],
      "stateMutability": "nonpayable",
      "type": "constructor"
    },
    {
      "inputs": [
        {
          "internalType": "uint256",
          "name": "",
          "type": "uint256"
        }
      ],
      "name": "animalTokenPrices",
      "outputs": [
        {
          "internalType": "uint256",
          "name": "",
          "type": "uint256"
        }
      ],
      "stateMutability": "view",
      "type": "function"
    },
    {
      "inputs": [],
      "name": "mintAnimalTokenAddress",
      "outputs": [
        {
          "internalType": "contract MintAnimalToken",
          "name": "",
          "type": "address"
        }
      ],
      "stateMutability": "view",
      "type": "function"
    },
    {
      "inputs": [
        {
          "internalType": "uint256",
          "name": "",
          "type": "uint256"
        }
      ],
      "name": "onSaleAnimalTokenArray",
      "outputs": [
        {
          "internalType": "uint256",
          "name": "",
          "type": "uint256"
        }
      ],
      "stateMutability": "view",
      "type": "function"
    },
    {
      "inputs": [
        {
          "internalType": "uint256",
          "name": "_animalTokenId",
          "type": "uint256"
        },
        {
          "internalType": "uint256",
          "name": "_price",
          "type": "uint256"
        }
      ],
      "name": "setForSaleAnimalToken",
      "outputs": [],
      "stateMutability": "nonpayable",
      "type": "function"
    },
    {
      "inputs": [
        {
          "internalType": "uint256",
          "name": "_animalTokenId",
          "type": "uint256"
        }
      ],
      "name": "purchaseAnimalToken",
      "outputs": [],
      "stateMutability": "payable",
      "type": "function"
    },
    {
      "inputs": [],
      "name": "getOnSaleAnimalTokenArrayLength",
      "outputs": [
        {
          "internalType": "uint256",
          "name": "",
          "type": "uint256"
        }
      ],
      "stateMutability": "view",
      "type": "function"
    },
    {
      "inputs": [
        {
          "internalType": "uint256",
          "name": "_animalTokenId",
          "type": "uint256"
        }
      ],
      "name": "getAnimalTokenPrice",
      "outputs": [
        {
          "internalType": "uint256",
          "name": "",
          "type": "uint256"
        }
      ],
      "stateMutability": "view",
      "type": "function"
    }
  ],
  "bytecode": "0x608060405234801561001057600080fd5b506040516111273803806111278339818101604052810190610032919061008d565b806000806101000a81548173ffffffffffffffffffffffffffffffffffffffff021916908373ffffffffffffffffffffffffffffffffffffffff160217905550506100ff565b600081519050610087816100e8565b92915050565b60006020828403121561009f57600080fd5b60006100ad84828501610078565b91505092915050565b60006100c1826100c8565b9050919050565b600073ffffffffffffffffffffffffffffffffffffffff82169050919050565b6100f1816100b6565b81146100fc57600080fd5b50565b6110198061010e6000396000f3fe6080604052600436106100705760003560e01c80634d1d7d5f1161004e5780634d1d7d5f146101065780639f7c764d14610143578063c6ffd54e1461015f578063fdbb69df1461018a57610070565b8063091635e9146100755780632dd7d12f146100a0578063498b520e146100dd575b600080fd5b34801561008157600080fd5b5061008a6101c7565b6040516100979190610cc9565b60405180910390f35b3480156100ac57600080fd5b506100c760048036038101906100c291906109e7565b6101d4565b6040516100d49190610cc9565b60405180910390f35b3480156100e957600080fd5b5061010460048036038101906100ff9190610a10565b6101ec565b005b34801561011257600080fd5b5061012d600480360381019061012891906109e7565b6104d1565b60405161013a9190610cc9565b60405180910390f35b61015d600480360381019061015891906109e7565b6104f5565b005b34801561016b57600080fd5b50610174610915565b6040516101819190610bce565b60405180910390f35b34801561019657600080fd5b506101b160048036038101906101ac91906109e7565b610939565b6040516101be9190610cc9565b60405180910390f35b6000600280549050905090565b60016020528060005260406000206000915090505481565b60008060009054906101000a900473ffffffffffffffffffffffffffffffffffffffff1673ffffffffffffffffffffffffffffffffffffffff16636352211e846040518263ffffffff1660e01b81526004016102489190610cc9565b60206040518083038186803b15801561026057600080fd5b505afa158015610274573d6000803e3d6000fd5b505050506040513d601f19601f820116820180604052508101906102989190610995565b90503373ffffffffffffffffffffffffffffffffffffffff168173ffffffffffffffffffffffffffffffffffffffff1614610308576040517f08c379a00000000000000000000000000000000000000000000000000000000081526004016102ff90610be9565b60405180910390fd5b6000821161034b576040517f08c379a000000000000000000000000000000000000000000000000000000000815260040161034290610ca9565b60405180910390fd5b60006001600085815260200190815260200160002054146103a1576040517f08c379a000000000000000000000000000000000000000000000000000000000815260040161039890610c89565b60405180910390fd5b60008054906101000a900473ffffffffffffffffffffffffffffffffffffffff1673ffffffffffffffffffffffffffffffffffffffff1663e985e9c582306040518363ffffffff1660e01b81526004016103fc929190610b6e565b60206040518083038186803b15801561041457600080fd5b505afa158015610428573d6000803e3d6000fd5b505050506040513d601f19601f8201168201806040525081019061044c91906109be565b61048b576040517f08c379a000000000000000000000000000000000000000000000000000000000815260040161048290610c29565b60405180910390fd5b8160016000858152602001908152602001600020819055506002839080600181540180825580915050600190039060005260206000200160009091909190915055505050565b600281815481106104e157600080fd5b906000526020600020016000915090505481565b60006001600083815260200190815260200160002054905060008060009054906101000a900473ffffffffffffffffffffffffffffffffffffffff1673ffffffffffffffffffffffffffffffffffffffff16636352211e846040518263ffffffff1660e01b81526004016105699190610cc9565b60206040518083038186803b15801561058157600080fd5b505afa158015610595573d6000803e3d6000fd5b505050506040513d601f19601f820116820180604052508101906105b99190610995565b9050600082116105fe576040517f08c379a00000000000000000000000000000000000000000000000000000000081526004016105f590610c49565b60405180910390fd5b34821115610641576040517f08c379a000000000000000000000000000000000000000000000000000000000815260040161063890610c69565b60405180910390fd5b3373ffffffffffffffffffffffffffffffffffffffff168173ffffffffffffffffffffffffffffffffffffffff1614156106b0576040517f08c379a00000000000000000000000000000000000000000000000000000000081526004016106a790610c09565b60405180910390fd5b8073ffffffffffffffffffffffffffffffffffffffff166108fc349081150290604051600060405180830381858888f193505050501580156106f6573d6000803e3d6000fd5b5060008054906101000a900473ffffffffffffffffffffffffffffffffffffffff1673ffffffffffffffffffffffffffffffffffffffff166342842e0e8233866040518463ffffffff1660e01b815260040161075493929190610b97565b600060405180830381600087803b15801561076e57600080fd5b505af1158015610782573d6000803e3d6000fd5b505050506000600160008581526020019081526020016000208190555060005b60028054905081101561090f57600060016000600284815481106107ef577f4e487b7100000000000000000000000000000000000000000000000000000000600052603260045260246000fd5b906000526020600020015481526020019081526020016000205414156108fc57600260016002805490506108239190610cf5565b8154811061085a577f4e487b7100000000000000000000000000000000000000000000000000000000600052603260045260246000fd5b90600052602060002001546002828154811061089f577f4e487b7100000000000000000000000000000000000000000000000000000000600052603260045260246000fd5b906000526020600020018190555060028054806108e5577f4e487b7100000000000000000000000000000000000000000000000000000000600052603160045260246000fd5b600190038181906000526020600020016000905590555b808061090790610d95565b9150506107a2565b50505050565b60008054906101000a900473ffffffffffffffffffffffffffffffffffffffff1681565b600060016000838152602001908152602001600020549050919050565b60008151905061096581610f9e565b92915050565b60008151905061097a81610fb5565b92915050565b60008135905061098f81610fcc565b92915050565b6000602082840312156109a757600080fd5b60006109b584828501610956565b91505092915050565b6000602082840312156109d057600080fd5b60006109de8482850161096b565b91505092915050565b6000602082840312156109f957600080fd5b6000610a0784828501610980565b91505092915050565b60008060408385031215610a2357600080fd5b6000610a3185828601610980565b9250506020610a4285828601610980565b9150509250929050565b610a5581610d29565b82525050565b610a6481610d71565b82525050565b6000610a77602183610ce4565b9150610a8282610e0d565b604082019050919050565b6000610a9a601d83610ce4565b9150610aa582610e5c565b602082019050919050565b6000610abd602983610ce4565b9150610ac882610e85565b604082019050919050565b6000610ae0601683610ce4565b9150610aeb82610ed4565b602082019050919050565b6000610b03601d83610ce4565b9150610b0e82610efd565b602082019050919050565b6000610b26602583610ce4565b9150610b3182610f26565b604082019050919050565b6000610b49601783610ce4565b9150610b5482610f75565b602082019050919050565b610b6881610d67565b82525050565b6000604082019050610b836000830185610a4c565b610b906020830184610a4c565b9392505050565b6000606082019050610bac6000830186610a4c565b610bb96020830185610a4c565b610bc66040830184610b5f565b949350505050565b6000602082019050610be36000830184610a5b565b92915050565b60006020820190508181036000830152610c0281610a6a565b9050919050565b60006020820190508181036000830152610c2281610a8d565b9050919050565b60006020820190508181036000830152610c4281610ab0565b9050919050565b60006020820190508181036000830152610c6281610ad3565b9050919050565b60006020820190508181036000830152610c8281610af6565b9050919050565b60006020820190508181036000830152610ca281610b19565b9050919050565b60006020820190508181036000830152610cc281610b3c565b9050919050565b6000602082019050610cde6000830184610b5f565b92915050565b600082825260208201905092915050565b6000610d0082610d67565b9150610d0b83610d67565b925082821015610d1e57610d1d610dde565b5b828203905092915050565b6000610d3482610d47565b9050919050565b60008115159050919050565b600073ffffffffffffffffffffffffffffffffffffffff82169050919050565b6000819050919050565b6000610d7c82610d83565b9050919050565b6000610d8e82610d47565b9050919050565b6000610da082610d67565b91507fffffffffffffffffffffffffffffffffffffffffffffffffffffffffffffffff821415610dd357610dd2610dde565b5b600182019050919050565b7f4e487b7100000000000000000000000000000000000000000000000000000000600052601160045260246000fd5b7f43616c6c6572206973206e6f7420616e696d616c20746f6b656e206f776e657260008201527f2e00000000000000000000000000000000000000000000000000000000000000602082015250565b7f43616c6c657220697320616e696d616c20746f6b656e206f776e65722e000000600082015250565b7f416e696d616c20746f6b656e206f776e657220646964206e6f7420617070726f60008201527f766520746f6b656e2e0000000000000000000000000000000000000000000000602082015250565b7f416e696d616c20746f6b656e206e6f742073616c652e00000000000000000000600082015250565b7f43616c6c65722073656e74206c6f776572207468616e2070726963652e000000600082015250565b7f5468697320616e696d616c20746f6b656e20697320616c7265616479206f6e2060008201527f73616c652e000000000000000000000000000000000000000000000000000000602082015250565b7f5072696365206973207a65726f206f72206c6f7765722e000000000000000000600082015250565b610fa781610d29565b8114610fb257600080fd5b50565b610fbe81610d3b565b8114610fc957600080fd5b50565b610fd581610d67565b8114610fe057600080fd5b5056fea2646970667358221220242605ceea21e6aea94ec5e5dfe31a1d7424d723ae43f6184c4be5e08cc8327a64736f6c63430008010033",
  "immutableReferences": {},
  "source": "// SPDX-License-Identifier: MIT\r\n\r\npragma solidity ^0.8.1;\r\n\r\nimport \"./MintAnimalToken.sol\";\r\n\r\ncontract SaleAnimalToken {\r\n    MintAnimalToken public mintAnimalTokenAddress;\r\n\r\n    constructor (address _mintAnimalTokenAddress) {\r\n        mintAnimalTokenAddress = MintAnimalToken(_mintAnimalTokenAddress);\r\n    }\r\n\r\n    mapping(uint256 => uint256) public animalTokenPrices;\r\n\r\n    uint256[] public onSaleAnimalTokenArray;\r\n\r\n    function setForSaleAnimalToken(uint256 _animalTokenId, uint256 _price) public {\r\n        address animalTokenOwner = mintAnimalTokenAddress.ownerOf(_animalTokenId);\r\n\r\n        require(animalTokenOwner == msg.sender, \"Caller is not animal token owner.\");\r\n        require(_price > 0, \"Price is zero or lower.\");\r\n        require(animalTokenPrices[_animalTokenId] == 0, \"This animal token is already on sale.\");\r\n        require(mintAnimalTokenAddress.isApprovedForAll(animalTokenOwner, address(this)), \"Animal token owner did not approve token.\");\r\n\r\n        animalTokenPrices[_animalTokenId] = _price;\r\n\r\n        onSaleAnimalTokenArray.push(_animalTokenId);\r\n    }\r\n\r\n    function purchaseAnimalToken(uint256 _animalTokenId) public payable {\r\n        uint256 price = animalTokenPrices[_animalTokenId];\r\n        address animalTokenOwner = mintAnimalTokenAddress.ownerOf(_animalTokenId);\r\n\r\n        require(price > 0, \"Animal token not sale.\");\r\n        require(price <= msg.value, \"Caller sent lower than price.\");\r\n        require(animalTokenOwner != msg.sender, \"Caller is animal token owner.\");\r\n\r\n        payable(animalTokenOwner).transfer(msg.value);\r\n        mintAnimalTokenAddress.safeTransferFrom(animalTokenOwner, msg.sender, _animalTokenId);\r\n\r\n        animalTokenPrices[_animalTokenId] = 0;\r\n\r\n        for(uint256 i = 0; i < onSaleAnimalTokenArray.length; i++) {\r\n            if(animalTokenPrices[onSaleAnimalTokenArray[i]] == 0) {\r\n                onSaleAnimalTokenArray[i] = onSaleAnimalTokenArray[onSaleAnimalTokenArray.length - 1];\r\n                onSaleAnimalTokenArray.pop();\r\n            }\r\n        }\r\n    }\r\n\r\n    function getOnSaleAnimalTokenArrayLength() view public returns (uint256) {\r\n        return onSaleAnimalTokenArray.length;\r\n    }\r\n\r\n    function getAnimalTokenPrice(uint256 _animalTokenId) view public returns (uint256) {\r\n        return animalTokenPrices[_animalTokenId];\r\n    }\r\n}",
  "sourcePath": "C:\\Users\\LeeSeongHyun\\Desktop\\VSCODE\\DappProject\\contracts\\SaleAnimalToken.sol",
  "compiler": {
    "name": "solc",
    "version": "0.8.1+commit.df193b15.Emscripten.clang"
  },
  "schemaVersion": "3.4.5",
  "updatedAt": "2022-03-07T04:55:04.215Z",
  "devdoc": {
    "kind": "dev",
    "methods": {},
    "version": 1
  },
  "userdoc": {
    "kind": "user",
    "methods": {},
    "version": 1
  }
}